:100000000C942A000C943F000C943F000C943F0089
:100010000C943F000C943F000C943F000C943F0064
:100020000C943F000C943F000C943F000C943F0054
:100030000C943F000C943F000C943F000C943F0044
:100040000C943F000C943F000C943F000C943F0034
:100050000C943F0011241FBECFE5D8E0DEBFCDBF1A
:1000600010E0A0E6B0E0E4E1F5E002C005900D92FA
:10007000AE3EB107D9F70E9484020C9488020C941A
:10008000000086E880BD88E18AB98DE489B90895C9
:100090005F9BFECF1BB88CB1089588BB82B38F7D68
:1000A00082BB82B38F7B82BB82B3806882BB8FE3CB
:1000B0009CE90197F1F700C0000082B38F7782BB03
:1000C000089588BB82B3806282BB82B38F7B82BB80
:1000D00082B3806882BB8FE39CE90197F1F700C08F
:1000E000000082B38F7782BB089588E30E944D00A1
:1000F0008FE99FE00197F1F700C0000081E00E94C6
:100100004D008FE99FE00197F1F700C0000082E009
:100110000E944D008FE99FE00197F1F700C00000B9
:1001200086E00E944D008FE99FE00197F1F700C043
:10013000000080E80E944D008FE99FE00197F1F7F1
:1001400000C0000008950F931F93CF93DF938C019D
:10015000C0E0D0E003C00E9461002196F801EC0FDE
:10016000FD1F80818111F7CFDF91CF911F910F91FA
:1001700008958FEF87BB80EE81BB0E9475008FE3EF
:100180009CE90197F1F700C000008CE00E944D004F
:100190008FE39CE90197F1F700C0000084E990E04B
:1001A0000E94A3009FEF20E782E091502040804012
:1001B000E1F700C0000080EC0E944D009FEF21EEAF
:1001C00084E0915020408040E1F700C000008EE9BB
:1001D00090E00E94A3000895CF93DF93CDB7DEB7E0
:1001E000E0970FB6F894DEBF0FBECDBF8CE0E0E61F
:1001F000F0E0DE01119601900D928A95E1F78CE016
:10020000EDE6F0E0DE011D9601900D928A95E1F792
:100210008CE0EAE7F0E0DE01599601900D928A95B4
:10022000E1F78CE0E7E8F0E0DE01959601900D92B1
:100230008A95E1F70E9441002FEF81EE94E0215072
:1002400080409040E1F700C0000000E010E0C12CC9
:10025000D12CE12CF12C2CC00E944800E1E0F0E010
:10026000EC0FFD1FE00FF11F9081891301C0F39483
:10027000EDE0F0E0EC0FFD1FE00FF11F908189131E
:1002800001C0E394E9E1F0E0EC0FFD1FE00FF11F86
:100290009081891301C0D394E5E2F0E0EC0FFD1FDB
:1002A000E00FF11F9081891301C0C3940F5F1F4FAE
:1002B0000C3011058CF22CE0F21239C081E00E9462
:1002C0004D008FE99FE00197F1F700C0000088EA38
:1002D00090E00E94A3009FEF20E782E09150204031
:1002E0008040E1F700C0000080EC0E944D009FEFCD
:1002F00021EE84E0915020408040E1F700C00000F2
:1003000082EB90E00E94A3009FEF23E284EF9150E4
:1003100020408040E1F700C0000081E00E944D00D5
:100320008FE99FE00197F1F700C000008ECF9CE0BD
:10033000E91239C081E00E944D008FE99FE00197EA
:10034000F1F700C0000082EC90E00E94A3009FEF54
:1003500020E782E0915020408040E1F700C000009B
:1003600080EC0E944D009FEF21EE84E091502040F0
:100370008040E1F700C0000082EB90E00E94A30003
:100380009FEF23E284EF915020408040E1F700C0CE
:10039000000081E00E944D008FE99FE00197F1F796
:1003A00000C0000052CF9CE0D91239C081E00E9409
:1003B0004D008FE99FE00197F1F700C000008CEC41
:1003C00090E00E94A3009FEF20E782E09150204040
:1003D0008040E1F700C0000080EC0E944D009FEFDC
:1003E00021EE84E0915020408040E1F700C0000001
:1003F00082EB90E00E94A3009FEF23E284EF9150F4
:1004000020408040E1F700C0000081E00E944D00E4
:100410008FE99FE00197F1F700C0000016CF9CE044
:10042000C91239C081E00E944D008FE99FE0019719
:10043000F1F700C0000086ED90E00E94A3009FEF5E
:1004400020E782E0915020408040E1F700C00000AA
:1004500080EC0E944D009FEF21EE84E091502040FF
:100460008040E1F700C0000082EB90E00E94A30012
:100470009FEF23E284EF915020408040E1F700C0DD
:10048000000081E00E944D008FE99FE00197F1F7A5
:1004900000C00000DACE81E00E944D008FE99FE0AD
:1004A0000197F1F700C0000080EE90E00E94A300E9
:1004B0009FEF20E782E0915020408040E1F700C0AC
:1004C000000080EC0E944D009FEF21EE84E09150EF
:1004D00020408040E1F700C000008EE990E00E94DB
:1004E000A3009FEF23E284EF915020408040E1F78A
:1004F00000C0000081E00E944D008FE99FE001975D
:10050000F1F700C00000A1CE0E94B9000E94EC00EB
:04051000F894FFCF8D
:1005140031333030364636423533393100313330B9
:100524003036464133333746350031333030364682
:10053400344236373733003133303036464333357F
:100544003141320053686F7720596F7572005246FB
:10055400494420436172640053747564656E742069
:100564003100417474656E64616E636520446F6E1E
:10057400650053747564656E742032005374756439
:10058400656E7420330053747564656E7420340092
:0E059400556E6964656E746966696564000081
:00000001FF
